:020000040000FA
:10000000C8320020A9020000B1020000B3020000C3
:10001000B5020000B7020000B902000000000000B5
:10002000000000000000000000000000911500002A
:10003000BD02000000000000D1130000B515000053
:10004000C3020000C5020000C7020000C902000090
:10005000CB020000CD020000CF020000D102000060
:10006000D3020000D5020000D7020000D902000030
:10007000DB020000DD020000DF020000E102000000
:10008000E3020000E5020000E7020000E9020000D0
:10009000EB020000ED020000EF020000F1020000A0
:1000A000F3020000F5020000F7020000F902000070
:1000B000FB020000FD020000FF020000010300003F
:1000C000030300000503000007030000090300000C
:1000D0000B0300000D0300000F03000011030000DC
:1000E00013030000150300000000000017030000C8
:1000F000190300001B0300001D0300001F03000084
:100100002103000023030000250300002703000053
:100110000000000000000000290300002B03000085
:100120002D0300002F030000310300003303000003
:100130003503000037030000390300003B030000D3
:1001400000000000000000000000000000000000AF
:100150003D0300003F030000410300004303000093
:10016000000000000000000000000000000000008F
:10017000000000000000000000000000000000007F
:10018000000000000000000000000000000000006F
:10019000000000000000000000000000000000005F
:1001A000000000000000000000000000000000004F
:1001B0004503000047030000490300004B03000013
:1001C0004D0300004F0300005103000053030000E3
:1001D0005503000057030000590300005B030000B3
:1001E0005D0300005F0300006103000000000000E9
:1001F00000000000630300006503000067030000C7
:10020000690300006B030000000000000000000014
:100210006D0300006F030000710300007303000012
:100220007503000077030000790300007B030000E2
:100230007D0300007F0300008103000083030000B2
:100240008503000087030000890300008B03000082
:100250008D0300008F030000910300009303000052
:10026000950300009703000099030000DFF80CD00D
:1002700000F0BCFA00480047E1160000C832002038
:10028000EFF3108072B67047EFF310807047EFF312
:10029000108062B6704730BF704780F31188704796
:1002A000EFF31180704700003C4880473C4800470E
:1002B000FEE7FEE7FEE7FEE7FEE7FEE7FEE7FEE716
:1002C000FEE7FEE7FEE7FEE7FEE7FEE7FEE7FEE706
:1002D000FEE7FEE7FEE7FEE7FEE7FEE7FEE7FEE7F6
:1002E000FEE7FEE7FEE7FEE7FEE7FEE7FEE7FEE7E6
:1002F000FEE7FEE7FEE7FEE7FEE7FEE7FEE7FEE7D6
:10030000FEE7FEE7FEE7FEE7FEE7FEE7FEE7FEE7C5
:10031000FEE7FEE7FEE7FEE7FEE7FEE7FEE7FEE7B5
:10032000FEE7FEE7FEE7FEE7FEE7FEE7FEE7FEE7A5
:10033000FEE7FEE7FEE7FEE7FEE7FEE7FEE7FEE795
:10034000FEE7FEE7FEE7FEE7FEE7FEE7FEE7FEE785
:10035000FEE7FEE7FEE7FEE7FEE7FEE7FEE7FEE775
:10036000FEE7FEE7FEE7FEE7FEE7FEE7FEE7FEE765
:10037000FEE7FEE7FEE7FEE7FEE7FEE7FEE7FEE755
:10038000FEE7FEE7FEE7FEE7FEE7FEE7FEE7FEE745
:10039000FEE7FEE7FEE7FEE7FEE70000D5150000FA
:1003A0006D02000040EA01039B0703D009E008C981
:1003B000121F08C0042AFAD203E011F8013B00F82A
:1003C000013B521EF9D27047D2B201E000F8012B76
:1003D000491EFBD270470022F6E710B513460A46C5
:1003E00004461946FFF7F0FF204610BD30B50B4616
:1003F000014600202022012409E021FA02F59D4255
:1004000005D303FA02F5491B04FA02F52844151E28
:10041000A2F10102F1DC30BD2DE9F05F05460020BC
:1004200092469B4688460646814640241BE0284665
:1004300041464746224600F0FAF953465A46C01A4A
:10044000914110D311461846224600F0E1F92D1AC9
:1004500067EB01084F4622460120002100F0D8F941
:1004600017EB00094E41201EA4F10104DFDC4846D1
:1004700031462A464346BDE8F09F2DE9FE4F8046AF
:1004800081EA0300C00F0C46009021F0004123F0E8
:100490000045B8EB0200A94105D2404621469046EE
:1004A0001C460B46024623F00040104347D0270D60
:1004B000C7F30A00C3F30A510290401A0190402882
:1004C0006BDAC3F3130040F4801B0098924620B10E
:1004D0000023D2EB030A63EB0B0B01985946C0F1E2
:1004E0004002504600F094F906460D4650465946E3
:1004F000019A00F0ACF910EB08006141002487EA92
:10050000115284EAE7731A4340D0009A62B3019A09
:10051000012A4FEA075215DC001B61EB02014FF084
:10052000004202EA0752CDE90042001C41F5801169
:1005300032462B4600F0ACF903B0BDE8F08F4046E0
:100540002146F9E7001B61EB0201001C41F5801315
:1005500000185B412018A2F5001747EB030140EAA1
:10056000D570B6196D4111E06D084FEA360645EABF
:10057000C0754FEA0752001B61EB0201001C41F5F8
:10058000801149084FEA30000019514132462B468C
:1005900003B0BDE8F04F00F06CB9009801224000B4
:1005A0000023D0EB020263EBE073009821464FEA90
:1005B000E074B8EB000061EB0401E9E783F000436D
:1005C0005BE781F0004158E72DE9FE4F81EA030423
:1005D00004F0004421F0004100944FF0000B23F0A0
:1005E000004350EA01045ED052EA03045BD0C3F337
:1005F0000A54C1F30A552C44A4F2F3340194A0FB2D
:100600000254C1F3130141F48011C3F3130343F403
:10061000801301FB024400FB034E840A970A44EA5C
:10062000815447EA8357A4FB076802958D0A05FBAE
:1006300007854FEA932C04FB0C542705029D4FEAD3
:10064000065847EA1637B5EB08056EEB070C870E20
:10065000920E47EA811742EA8312A7FB0201B6EB2A
:100660000B0164EB00042B0D43EA0C335E1844EBE2
:100670001C50DA465146E7FB0201C5F313044FEA6A
:100680000B3343EA14534FEA0432019C43EA060356
:10069000A4F10C040294009CCDE900B400F0F8F839
:1006A00003B0BDE8F08F00200146F9E72DE9F04DD9
:1006B00081EA030404F0004B21F0004514464FF09A
:1006C000000A23F0004150EA050220D054EA01025A
:1006D0001DD0C5F30A570246C5F31303C1F3130037
:1006E000C1F30A5640F4801543F48013A7EB0608C3
:1006F000101BD64608F2FD3873EB050002D308F153
:10070000010801E092185B41B8F1000F03DA002004
:100710000146BDE8F08D00204FF480110646844666
:100720000EE0171B73EB050705D3121B63EB0503E4
:1007300006434CEA010C49084FEA300092185B412D
:1007400050EA0107EDD152EA030012D082EA040018
:1007500083EA0501084305D0101BAB4106D20122F4
:10076000002306E000224FF0004302E06FF0010298
:1007700053101AEB06004CEB085110EB0A0041EB4A
:100780000B01BDE8F04D00F074B8C1F30A52C1F39B
:10079000130140F2FF3341F480119A4202DA002043
:1007A0000146704740F233439A42A2F2334202DCE0
:1007B000524200F03CB800F02BB8000030B5041EE7
:1007C00071F1000404DB4FF00044404264EB01018E
:1007D000141E73F1000405DB1C464FF00043524227
:1007E00063EB0403994208BF904230BD064C074DAD
:1007F00006E0E06840F0010394E8070098471034F1
:10080000AC42F6D3FFF736FD206A0000406A0000D4
:10081000202A04DB203A00FA02F1002070479140C0
:10082000C2F1200320FA03F3194390407047202AB5
:1008300004DB203A21FA02F00021704721FA02F38A
:10084000D040C2F120029140084319467047202A47
:1008500006DBCB17203A41FA02F043EAE07306E0E8
:1008600041FA02F3D040C2F12002914008431946F8
:10087000704710B5141E73F1000408DA401C41F1F2
:10088000000192185B411A4301D120F0010010BD14
:100890002DE9F04D92469B4611B1B1FA81F202E08A
:1008A000B0FA80F220329046FFF7B2FF04460F46BE
:1008B00040EA0A0041EA0B0153465A46084313D066
:1008C000114653EA010019D0C8F140025046FFF723
:1008D000AEFF05460E46504659464246FFF798FF82
:1008E000084305D0012004E020463946BDE8F08DDC
:1008F0000020054346EAE0762C4337430A98630517
:10090000E40AA0EB08000022FD0A44EA47540A303A
:1009100002D500200146E9E7010510196941DDE92A
:10092000084500196941BDE8F04DA2E730B58C18C3
:1009300010F8012B12F00F0301D110F8013B12093E
:1009400006D110F8012B03E010F8015B01F8015B00
:100950005B1EF9D101E001F8013B521EFBD1A1421F
:10096000E6D3002030BD00004EF22061C4F20F013A
:10097000086840F0010008604EF20861C4F20F01FF
:10098000086840F002000860FFE74EF60820C4F255
:100990000F0000688007002801D4FFE7F5E745F263
:1009A0002041C4F20001086840F00C00086045F2E4
:1009B0000C51C4F20001086840F00800086045F2DC
:1009C0001C51C4F20001086840F00C00086045F2B8
:1009D0002C51C4F20001086840F44C5008602021FA
:1009E000C4F20201102008600C21C4F20201272089
:1009F0000860704781B08DF803008DF802109DF8F3
:100A0000030040000021C4F2020108609DF80200CA
:100A10000821C4F2020108600421C4F2020103208B
:100A20000860FFE70420C4F202000068C00708B1B4
:100A3000FFE7F7E701B0704780B588B00020079066
:100A40004FF04020012104F0E3FF042840F08B80A8
:100A5000FFE74FF04020042104F0C4FF46F20000FD
:100A6000C4F20000802105F002F80146002918BFF9
:100A7000012140F28460C2F2000001700078C007DA
:100A800008B1FFE76EE040F28460C2F20000007837
:100A9000C00710BBFFE740F28060C2F200000068B0
:100AA000D8B9FFE743F25400C2F20000006807A97A
:100AB00003F0B8FFFFE7079860B1FFE74EF6045177
:100AC000CEF200014FF080500860BFF34F8FBFF3AC
:100AD0006F8F00E0FFE7FFE743E040F28460C2F27F
:100AE00000000078C007D8BBFFE740F28060C2F288
:100AF00000000068012818D0FFE740F28060C2F2D1
:100B000000000068032810D0FFE740F28060C2F2C6
:100B100000000068042808D0FFE740F28060C2F2BD
:100B20000000006802281BD1FFE745F2FC31C4F247
:100B30000201086820F00200086044F2FC31C4F2AF
:100B40000001086820F040000860086820F080007C
:100B5000086040F28061C2F2000100200860FFE7F7
:100B6000FFE7FFE7F6E24FF04020012104F050FFDD
:100B7000082840F08B80FFE74FF04020082104F068
:100B800031FF46F20000C4F20000802104F06FFF44
:100B90000146002918BF012140F28460C2F2000022
:100BA00001700078C00708B1FFE76EE040F2846092
:100BB000C2F200000078C00710BBFFE740F280607F
:100BC000C2F200000068D8B9FFE743F25C00C2F24D
:100BD0000000006807A903F025FFFFE7079860B150
:100BE000FFE74EF60451CEF200014FF0805008604E
:100BF000BFF34F8FBFF36F8F00E0FFE7FFE743E0E6
:100C000040F28460C2F200000078C007D8BBFFE762
:100C100040F28060C2F200000068012818D0FFE7AF
:100C200040F28060C2F200000068032810D0FFE7A5
:100C300040F28060C2F200000068042808D0FFE79C
:100C400040F28060C2F20000006802281BD1FFE77A
:100C500045F2FC31C4F20201086820F0020008608D
:100C600044F2FC31C4F20001086820F04000086042
:100C7000086820F08000086040F28061C2F2000144
:100C800000200860FFE7FFE7FFE762E24FF0402047
:100C9000012104F0BDFE102864D1FFE74FF0402091
:100CA000102104F09FFE40F28060C2F20000006854
:100CB000D8B9FFE743F20C00C2F20000006807A9B0
:100CC00003F0B0FEFFE7079860B1FFE74EF604516E
:100CD000CEF200014FF080500860BFF34F8FBFF39A
:100CE0006F8F00E0FFE7FFE73BE040F28060C2F279
:100CF00000000068012818D0FFE740F28060C2F2CF
:100D000000000068032810D0FFE740F28060C2F2C4
:100D100000000068042808D0FFE740F28060C2F2BB
:100D20000000006802281BD1FFE745F2FC31C4F245
:100D30000201086820F00200086044F2FC31C4F2AD
:100D40000001086820F040000860086820F080007A
:100D5000086040F28061C2F2000100200860FFE7F5
:100D6000FFE7F5E14FF04020012104F051FE20287B
:100D700064D1FFE74FF04020202104F033FE40F221
:100D80008060C2F200000068D8B9FFE743F21400A7
:100D9000C2F20000006807A903F044FEFFE70798CD
:100DA00060B1FFE74EF60451CEF200014FF08050E3
:100DB0000860BFF34F8FBFF36F8F00E0FFE7FFE7DF
:100DC0003BE040F28060C2F200000068012818D0C9
:100DD000FFE740F28060C2F200000068032810D0F4
:100DE000FFE740F28060C2F200000068042808D0EB
:100DF000FFE740F28060C2F20000006802281BD1C9
:100E0000FFE745F2FC31C4F20201086820F002005D
:100E1000086044F2FC31C4F20001086820F0400090
:100E20000860086820F08000086040F28061C2F22B
:100E3000000100200860FFE7FFE788E146F20000BC
:100E4000C4F20000012104F0E3FD102822D1FFE7E5
:100E500046F20000C4F20000102104F0C3FD43F28A
:100E60004C00C2F20000006807A903F0DBFDFFE7B9
:100E7000079860B1FFE74EF60451CEF200014FF043
:100E800080500860BFF34F8FBFF36F8F00E0FFE724
:100E9000FFE75BE146F20000C4F20000012104F02C
:100EA000B7FD402822D1FFE746F20000C4F200005F
:100EB000402104F097FD43F23000C2F200000068C8
:100EC00007A903F0AFFDFFE7079860B1FFE74EF613
:100ED0000451CEF200014FF080500860BFF34F8FF5
:100EE000BFF36F8F00E0FFE7FFE72EE146F200005F
:100EF000C4F20000012104F08BFD202822D1FFE77D
:100F000046F20000C4F20000202104F06BFD43F221
:100F1000BC00C2F20000006807A903F083FDFFE7F0
:100F2000079860B1FFE74EF60451CEF200014FF092
:100F300080500860BFF34F8FBFF36F8F00E0FFE773
:100F4000FFE701E146F20000C4F20000012104F0D5
:100F50005FFD802822D1FFE746F20000C4F20000C6
:100F6000802104F03FFD43F22800C2F20000006837
:100F700007A903F057FDFFE7079860B1FFE74EF6BA
:100F80000451CEF200014FF080500860BFF34F8F44
:100F9000BFF36F8F00E0FFE7FFE7D4E047F2000008
:100FA000C4F20000012104F033FD002800F0CA80E3
:100FB000FFE70020069047F20000C4F20000029014
:100FC000012104F025FD014602980591059904F0E0
:100FD00009FD47F2FC30C4F200000168C1F3801142
:100FE0008DF813100068C0B2C0098DF8120004F02B
:100FF000EBF80390039840F27C61C2F200010968AB
:10100000401A012801D8FFE7A4E0039840F27C6170
:10101000C2F2000108609DF814004006002825D5A2
:10102000FFE79DF813009DF8121088420FD1FFE7EB
:1010300040F20401C2F2000108680138086040F281
:101040007461C2F200014FF0FF3008600DE040F221
:101050000401C2F2000108680130086040F27461C6
:10106000C2F2000101200860FFE72BE09DF81400A8
:101070000006002825D5FFE79DF813009DF8121003
:1010800088420FD0FFE740F20401C2F20001086875
:101090000138086040F27461C2F200014FF0FF3085
:1010A00008600DE040F20401C2F20001086801305E
:1010B000086040F27461C2F2000101200860FFE79D
:1010C000FFE7FFE740F20400C2F200000068B0F161
:1010D000FF3F07DCFFE740F20401C2F200010020FD
:1010E0000860FFE740F20400C2F2000000680B282D
:1010F00007DBFFE740F20401C2F200010A200860AA
:10110000FFE743F21800C2F200000068694606AA31
:101110004A6000230B6019461A4603F01BFFFFE7E5
:10112000069860B1FFE74EF60451CEF200014FF091
:1011300080500860BFF34F8FBFF36F8F00E0FFE771
:10114000FFE7FFE7FFE7FFE7FFE7FFE7FFE7FFE76F
:10115000FFE7FFE708B080BD80B582B0012000F056
:101160000FF800200190FFE70198B0F5FA6F05DA5B
:10117000FFE7FFE7019801300190F5E702B080BD7D
:1011800080B582B08DF807009DF8070000F0F000F0
:101190000021009100F002F900999DF8070000017C
:1011A000C0B200F0FBF802B080BD000080B582B094
:1011B0008DF807009DF8070000F0F0000121009174
:1011C00000F0ECF800999DF807000001C0B200F0B3
:1011D000E5F802B080BD000080B58AB040F2080199
:1011E000C2F20001002004900870FFF7BDFB0498D4
:1011F0000990FFE709984CF24F31884205DCFFE780
:10120000FFE7099801300990F4E7302000210391AD
:1012100000F0C4F803980890FFE7089841F287317E
:10122000884205DCFFE7FFE7089801300890F4E703
:1012300030200021029100F0B1F802980790FFE7FA
:10124000079841F28731884205DCFFE7FFE70798FE
:1012500001300790F4E730200021019100F09EF862
:1012600001980690FFE70698B0F57A7F05DAFFE768
:10127000FFE7069801300690F5E720200021009155
:1012800000F08CF82820FFF77BFF0C20FFF778FF99
:101290000620FFF775FF0120FFF772FF0098059009
:1012A000FFE70598B0F5FA6F05DAFFE7FFE7059865
:1012B00001300590F5E70AB080BD000080B582B02E
:1012C0000190FFE70198007838B1FFE70198411CD1
:1012D00001910078FFF76AFFF4E702B080BD0000DB
:1012E00080B584B08DF80F009DF80F0040F2080122
:1012F000C2F2000101910978084340F0040127205F
:101300000290FFF777FB019A02989DF80F1001F009
:10131000FB0112781143FFF76DFB04B080BD0000A4
:1013200081B08DF803009DF80300002818BF01204C
:10133000C00040F20801C2F20001087001B070471D
:1013400080B582B08DF807008DF806104FF480400C
:10135000ADF804009DF806009DF8072001A9895CFE
:10136000084440F08000C0B2FFF70AFF02B080BD21
:1013700080B582B08DF807009DF8070040F20801A3
:10138000C2F20001097801432720FFF733FB9DF8E3
:101390000700FFF7A5FF02B080BD000080B582B056
:1013A0008DF807008DF806109DF806109DF80700CF
:1013B00000F0F00061F300008DF805009DF80500D5
:1013C000FFF7D6FF02B080BD000000000000000063
:1013D000EFF30980BFF36F8F154B1A681EF0100FE3
:1013E00008BF20ED108A20E9F04F10602DE90900B8
:1013F0004FF0800080F31188BFF34F8FBFF36F8FE2
:1014000003F0D6F84FF0000080F31188BDE8090022
:1014100019680868B0E8F04F1EF0100F08BFB0EC74
:10142000108A80F30988BFF36F8F704700BF00BF39
:10143000300700204EF20861C4F20F01086840F046
:101440000100086044F20041C4F20001086840F065
:10145000C0000860086820F03C00086044F21C519D
:10146000C4F20001086840F0FC000860704700000A
:101470004EF20861C4F20F01086840F004000860F1
:1014800046F20041C4F20001086820F0F000086054
:1014900046F21C51C4F20001086840F0F0000860F8
:1014A000704700004EF20861C4F20F01086840F076
:1014B00008000860FFE74EF20860C4F20F00006801
:1014C0000007002801D4FFE7F5E747F20041C4F226
:1014D0000001086820F0C0000860086840F00100C2
:1014E000086047F21051C4F20001086840F0C000E3
:1014F000086047F21C51C4F20001086840F0C100C6
:10150000086047F2FC31C4F20001086820F00100D5
:10151000086070474EF20861C4F20F01086840F09D
:1015200020000860FFE74EF20860C4F20F00006878
:101530008006002801D4FFE7F5E745F22051C4F208
:10154000020144F24B30C4F64F40086045F224518A
:10155000C4F202011F20086045F20041C4F20201FA
:101560000E20086045F21C51C4F20201086840F0E8
:101570001F00086045F2FC31C4F20201086820F047
:10158000020008607047000000000000000000003A
:10159000074B19680868B0E8F04F80F30988BFF37B
:1015A0006F8F4FF0000080F31188704700BF00BFBD
:1015B0003007002080B54EF21000CEF20000006827
:1015C00003F0E6FD012803D0FFE703F029F9FFE768
:1015D00080BD000081B04EF68851CEF2000108684F
:1015E00040F4700008604EF27001C4F20F0142F640
:1015F0001000C0F2807008604EF26002C4F20F0268
:1016000043F6D120C0F28E70106042F64250C0F214
:101610009E10106042F60000C0F2801008600020AA
:101620000090FFE70098C0087C2805D8FFE7FFE797
:10163000009801300090F5E74EF26001C4F20F010E
:1016400040F64250C0F29E1008604EF27001C4F2A3
:101650000F0140F60000C0F28010086000200090EA
:10166000FFE70098C0087C2805D8FFE7FFE700984F
:1016700001300090F5E74EF26001C4F20F0140F630
:101680004250C0F2DE100860FFE74EF25000C4F294
:101690000F00006800F04000402801D0FFE7F4E7A9
:1016A0004EF26001C4F20F0140F24250C0F2DE106F
:1016B00008604EF27001C4F20F014FF0C070086074
:1016C00000200090FFE7009842F20F71884205D891
:1016D000FFE7FFE7009801300090F4E701B07047A2
:1016E00080B598B0002015901790FFF7A3FEFFF784
:1016F000BFFEFFF70FFFFFF76FFD01201490FFF70C
:101700000FFEFFF729FD15990846FFF719FE46F66B
:10171000FB10C0F20000FFF7D1FD14981599FFF7F8
:101720000FFE46F2FC70C0F20000FFF7C7FD1598EF
:101730001690FFE7169844F23F21C0F20F0188424D
:1017400005DCFFE7FFE7169801301690F2E740F658
:101750003921C0F200010E914FF04020049004F0B6
:101760004AF90E9946F20000C4F20000089004F015
:1017700042F9049804220B92114604F050F904989F
:101780000B9A1021059104F04AF904980B9A08214C
:10179000039104F044F904980B9A2021069104F077
:1017A0003EF9059908980122129204F038F9089838
:1017B000129A4021079104F032F906990898129A7A
:1017C00004F02DF90898129A8021119104F027F95C
:1017D0001199122004F080F90598812104F07CF918
:1017E00004980B9904F001F90399049804F0FDF8AA
:1017F0000498059904F0F9F80498069904F0F5F8AE
:101800000599089804F0F1F80699089804F0EDF8A5
:101810000799089804F0E9F80898119904F0E5F898
:1018200012980021139103220D9203F019F80D9ADA
:1018300013990346129843F20C0CC2F2000CCCF838
:10184000003003F00DF80D9A13990346129843F2F5
:10185000140CC2F2000CCCF8003003F001F80D9A21
:1018600013990346129843F2540CC2F2000CCCF8C0
:10187000003002F0F5FF0D9A13990346129843F2D7
:101880005C0CC2F2000CCCF8003002F0E9FF0D9ABB
:1018900013990346129843F2280CC2F2000CCCF8BC
:1018A000003002F0DDFF0D9A13990346129843F2BF
:1018B0004C0CC2F2000CCCF8003002F0D1FF0D9AB3
:1018C00013990346129843F2300CC2F2000CCCF884
:1018D000003002F0C5FF139B0146129843F2BC0290
:1018E000C2F20002116043F25002C2F200026946E5
:1018F0004A60086043F6BD20C0F2000046F6C5010C
:10190000C0F200019622099203F0CCFA099A139BC7
:10191000129843F2580CC2F2000C6946C1F804C098
:10192000086043F6F540C0F2000046F6B811C0F278
:10193000000103F0B7FA099A139B43F20800C2F2C0
:1019400000006946486002200A90086042F67D6007
:10195000C0F2000046F6DC01C0F2000103F0A2FA7A
:10196000099A139B0A9843F2100CC2F2000C6946C4
:10197000C1F804C0086043F2B900C0F2000046F6A6
:10198000CD11C0F2000103F08DFA139B0A9843F2C7
:101990002402C2F2000269464A60086043F26160B4
:1019A000C0F2000046F6EF11C0F2000164220C9272
:1019B00003F078FA0C9A139B0B9843F2B80CC2F21E
:1019C000000C6946C1F804C0086044F26D60C0F2C2
:1019D000000046F62D11C0F2000103F063FA0C9AE4
:1019E000139B0B9843F22C0CC2F2000C6946C1F811
:1019F00004C0086043F2B970C0F2000046F63E1120
:101A0000C0F2000103F04EFA0C9A139B0D9843F2BA
:101A1000480CC2F2000C6946C1F804C0086043F6E5
:101A20000110C0F2000046F64F11C0F2000103F0B1
:101A300039FAFFF737FD0E9947F20000C4F20000B3
:101A40000F9003F0D8FF0F98129AC021109103F065
:101A5000E6FF1320822104F03FF80F98109903F05D
:101A6000C4FF119A1298139B43F2180CC2F2000C97
:101A70006946C1F804C0086043F2F520C0F20000D6
:101A800046F6B011C0F2000103F00CFAFFF764FB58
:101A900013990846FFF754FC46F6DF10C0F2000029
:101AA000FFF70CFC12981399FFF74AFC46F61E103C
:101AB000C0F20000FFF702FC02F0A4FCFFE7FEE723
:101AC00080B588B00790069143F2AC00C2F20000E6
:101AD0000068049040F23870C2F200000068039081
:101AE00040F24070C2F200000068029040F2307094
:101AF000C2F200000268002182F85A100068043027
:101B000001F016F908B9FFE700E0FFE70798013098
:101B100028BBFFE7069810B3FFE7FFE743F2840115
:101B2000C2F2000148680190019A40F23070C2F29E
:101B3000000003689A60019A92680368DA6002689C
:101B40000432019B9B685A6002680432019B9A60D0
:101B500000684161086801300860FFE735E00498DB
:101B6000079908440590059840F23071C2F20001CF
:101B7000096848600598049988420AD2FFE70298EC
:101B800040F23071C2F200010968043101F014FD25
:101B90001AE0039840F23071C2F200010968043182
:101BA00001F00AFD059843F23801C2F2000109680C
:101BB000884207D2FFE7059843F23801C2F20001DC
:101BC000086000E0FFE7FFE7FFE708B080BD000026
:101BD00080B582B0019002F0B3F942F6AC31C2F2A6
:101BE000000108680130086040F23070C2F2000065
:101BF000006898B9FFE7019840F23071C2F2000125
:101C0000086042F6AC30C2F200000068012803D13F
:101C1000FFE700F06BFB00E0FFE71CE043F2780019
:101C2000C2F200000068A0B9FFE740F23070C2F2D3
:101C300000000068C06A0199C96A884207D8FFE7B6
:101C4000019840F23071C2F20001086000E0FFE745
:101C500000E0FFE7FFE742F6B830C2F2000001689B
:101C600001310160006801994864FFE7FFE70198CE
:101C7000C06A42F6BC31C2F200010968884208D944
:101C8000FFE70198C06A42F6BC31C2F20001086069
:101C9000FFE7FFE7FFE70198C06A00EB800040F232
:101CA0004871C2F2000101EB80004068009000988A
:101CB000019A906000988068019AD0600198043081
:101CC000009A9268506001980430009A9060019ADE
:101CD000D06A00EB800001EB800050610198C06A7F
:101CE00000EB800251F82200013041F82200FFE7AA
:101CF000FFE702F03DF943F27800C2F2000000680D
:101D0000D8B1FFE7FFE740F23070C2F20000006890
:101D1000C06A0199C96A88420CD2FFE74EF60451A5
:101D2000CEF200014FF080500860BFF34F8FBFF339
:101D30006F8F00E0FFE7FFE700E0FFE702B080BD44
:101D400080B584B002F0FCF843F2B000C2F20000AB
:101D5000006878BBFFE742F6B870C2F2000002905C
:101D600001F00AFC42F6CC70C2F20000039001F0D0
:101D700003FC0299039840F23472C2F2000211602F
:101D800040F24471C2F20001086069460020086018
:101D900040F28962C2F2000240F2DC63C2F2000348
:101DA0000520102102F0A0FD43F2B001C2F20001B3
:101DB000086000E0FFE702F0DBF804B080BD00003F
:101DC00080B582B0FFE742F6B030C2F20000006892
:101DD00008B3FFE702F0B4F843F29800C2F2000043
:101DE000C068C06801900198043000F0A1FF42F67D
:101DF000AC31C2F2000108680138086042F6B03127
:101E0000C2F2000108680138086002F0B1F80198D8
:101E100000F00EF9D7E702B080BD000080B582B0B7
:101E2000019000910198006CB8B1FFE70199C86872
:101E30000A6C1044C86001988168C068884204D365
:101E4000FFE701990868C86000E0FFE70098019A81
:101E5000D168126CFEF7A6FAFFE702B080BD000061
:101E600080B590B001200F90002009900890FFE706
:101E700008980F2813DCFFE7089A46F60C20C0F2FA
:101E80000000815C0AA881540899405C08B9FFE70A
:101E900005E0FFE7FFE7089801300890E8E7002039
:101EA0000E90FFE70E9800283BDCFFE742F281101E
:101EB000C0F200000990002004900790069007A847
:101EC00006A905AA00F05EFF049B0998059ADDF8B3
:101ED00018C0DDF81CE06946C1F808E0C1F804C08C
:101EE0000B600AA903F008F801460E9A43F220009D
:101EF000C2F2000040F822100E9950F8210018B1EB
:101F0000FFE701200F9002E000200F90FFE70F98FD
:101F100008B9FFE705E0FFE7FFE70E9801300E90F4
:101F2000C0E70F9810B080BD70B58AB0DDF844C02E
:101F3000DDF840C0DDF83CC0DDF838C009900891FC
:101F400007920693109828B3FFE70F9810B3FFE7A6
:101F50001098059005985C21FEF73DFA0F980599B9
:101F600008630599022081F8590009980899079A91
:101F7000069BDDF838C0119C059DEE460026CEF884
:101F80000C60CEF80850CEF80440CEF800C000F047
:101F900039F902E000200590FFE705980AB070BD0E
:101FA00070B58AB0DDF83CC0DDF838C00990089102
:101FB000079206930798800000F016FD049004989D
:101FC000A0B1FFE75C2000F00FFD0590059840B13F
:101FD000FFE705985C21FEF7FEF904980599086370
:101FE00003E0049801F0D8FFFFE702E0002005902D
:101FF000FFE70598C0B1FFE70598002680F8596013
:1020000009980899079A069BDDF838C00F9C059D32
:10201000EE46CEF80C60CEF80850CEF80440CEF86C
:1020200000C000F0EFF8FFE705980AB070BD0000AF
:1020300080B582B00190019890F8590040B9FFE74F
:102040000198006B01F0A8FF019801F0A5FF0BE0DB
:10205000019890F85900012804D1FFE7019801F098
:102060009BFF00E0FFE7FFE702B080BD82B0019078
:102070000198406A38B1FFE70198006B0068C0F131
:102080003800009002E000200090FFE7009802B0C6
:102090007047000082B0019040F23470C2F200003C
:1020A00000680068B0FA80F0400901990860019862
:1020B000006848B9FFE740F23470C2F200000068DF
:1020C000C0680068009002E000200090FFE70098E0
:1020D00002B0704784B04FF40050009040F6A83032
:1020E000C2F2000002909DF80800400788B1FFE7A7
:1020F000029807300290029820F007000290029A9E
:1021000040F6A831C2F200010098891A08440090F4
:10211000FFE7029943F27C00C2F200000160002157
:1021200041600298009A104401900198083801908B
:10213000019820F007000190019A40F23C70C2F231
:102140000000026002685160026811600299039108
:102150000199039A891A51600068039908600398ED
:10216000406843F23401C2F20001086003984068FD
:1021700043F21C01C2F20001086004B07047000085
:1021800080B582B00190FFE7FFF71AFE40F2487079
:10219000C2F20000006802280CD3FFE74EF604519B
:1021A000CEF200014FF080500860BFF34F8FBFF3B5
:1021B0006F8F00E0FFE700F011FEE5E780B584B027
:1021C000DDF818C00390029101928DF80330029857
:1021D00018B9FFE70698006003E0019806990860C7
:1021E000FFE703980699C863029806990864069861
:1021F000012102F0AFFB9DF80300069981F84C0025
:1022000004B080BD80B586B0DDF82CC0DDF828C0F4
:10221000DDF824C0DDF820C00590049103920293FC
:102220000A98006B03998900A522FEF7CDF80A9859
:10223000006B039900EB810004380190019820F0B5
:10224000070001900498F8B1FFE700200090FFE735
:1022500000980F2813D8FFE70498009A805C0A9929
:10226000114481F8340004980099405C08B9FFE7F4
:1022700005E0FFE7FFE7009801300090E8E70A99E2
:10228000002081F8430000E0FFE70898382803D3D6
:10229000FFE73720089000E0FFE708980A99C86236
:1022A00008980A99C8640A98043001F07DF90A98E0
:1022B000183001F079F90A9800610898C0F13800E7
:1022C0000A9988610A98406201980599029A00F07B
:1022D00079FC0A990860099820B1FFE70A980999E2
:1022E000086000E0FFE706B080BD000080B584B064
:1022F00000200390FFE70398372810D8FFE70398E2
:1023000000EB800140F24870C2F2000000EB810057
:1023100001F032F9FFE7039801300390EBE742F652
:10232000E070C2F20000019001F026F942F6F4706C
:10233000C2F20000029001F01FF943F26400C2F201
:10234000000001F019F943F29800C2F2000001F018
:1023500013F943F28400C2F2000001F00DF9019973
:10236000029840F23872C2F20002116040F24071ED
:10237000C2F20001086004B080BD000083B002908A
:1023800043F27C00C2F200000190FFE70198006870
:102390000299884205D2FFE7FFE7019800680190A3
:1023A000F4E7019843F27C01C2F20001884201D0B7
:1023B000FFE7FFE7019800900098019949680844F9
:1023C0000299884209D1FFE702984268019948685A
:1023D000104448600198029000E0FFE702980090E6
:1023E000009802994968084401990968884220D1F7
:1023F000FFE70198006840F23C71C2F200010968F1
:1024000088420DD0FFE70198006842680299486849
:10241000104448600198006800680299086007E06D
:1024200040F23C70C2F20000006802990860FFE7C9
:1024300004E00198006802990860FFE7019802999A
:10244000884204D0FFE702980199086000E0FFE7A6
:1024500003B0704780B586B0059004910392029353
:10246000002001900498059948600598006104983F
:102470000399884216D8FFE703980299401A0599F4
:102480008969884203D3FFE70120019009E040F207
:102490004470C2F2000000680599043101F08CF824
:1024A000FFE717E003980299884208D2FFE70498F3
:1024B0000299884203D3FFE70120019009E040F22E
:1024C0003470C2F2000000680599043101F074F81C
:1024D000FFE7FFE7019806B080BD000080B582B03D
:1024E000019001F02DFD0198806B18B9FFE70120E4
:1024F000009002E000200090FFE701F039FD009815
:1025000002B080BD08480068006880F308884FF07A
:10251000000080F3148862B661B6BFF34F8FBFF33B
:102520006F8F00DF00BF000008ED00E080B584B0D1
:102530000390029140F23470C2F200000068C0685B
:10254000C06801900198043000F0F2FB019890F807
:1025500028004007002806D5FFE701980399029A52
:1025600000F004F907E0019991F8280000F0FE005E
:1025700081F82800FFE70198016A884704B080BD10
:1025800080B58AB000200990089007900690FFE778
:1025900043F2B000C2F20000006806A9002202F077
:1025A000A5FA002800F09180FFE70698B0F1FF3F00
:1025B00009DCFFE706A80430029002990A6848681F
:1025C0008968904700E0FFE70698002800F17C80CA
:1025D000FFE7089805900598406928B1FFE705983E
:1025E000043000F0A5FB00E0FFE704A800F0F6F8D7
:1025F00003900698013801460191082862D8019994
:10260000DFE801F00505323A4C0505323A0005993C
:1026100091F8280040F0010081F828000598079BF8
:1026200081691944039AFFF715FFD8B1FFE70598B0
:1026300090F828004007002808D5FFE7059807997B
:1026400082691144039A00F091F807E0059991F826
:10265000280000F0FE0081F82800FFE70598016AD5
:10266000884700E0FFE72EE0059991F8280000F088
:10267000FE0081F8280026E0059991F8280040F036
:10268000010081F828000798059988610598039B47
:10269000816919441A46FFF7DDFE14E0059890F8A9
:1026A00028008007002804D4FFE7059801F074FC97
:1026B00007E0059991F8280000F0FE0081F8280055
:1026C000FFE700E0FFE7FFE762E70AB080BD000038
:1026D00080B584B00390029101F062FF684600F07B
:1026E0007DF801900098D8BBFFE7029860B9FFE73A
:1026F00003980199884207D8FFE703F017F8039879
:102700000199FFF713FF2AE0029858B1FFE740F262
:102710004470C2F2000000680068B0FA80F040091E
:102720000290FFE743F2B000C2F200000068039994
:10273000019A891A029A01F08DFC02F0F7FF60B944
:10274000FFE74EF60451CEF200014FF080500860D2
:10275000BFF34F8FBFF36F8F00E0FFE7FFE702E0AB
:1027600002F0E4FFFFE704B080BD000080B584B054
:10277000039002910192FFE70398029B816919443B
:10278000019AFFF767FE48B1FFE703988169029855
:10279000084402900398016A8847EDE704B080BDC1
:1027A00040F23870C2F200000068006840B9FFE7EC
:1027B00043F23801C2F200014FF0FF3008600CE034
:1027C00040F23870C2F200000068C068006843F24E
:1027D0003801C2F200010860FFE7704780B582B09F
:1027E000019002F0F1FC0090009840F22C71C2F2CE
:1027F00000010968884206D2FFE700F011F801994C
:102800000120086003E0019900200860FFE70098BC
:1028100040F22C71C2F200010860009802B080BD45
:1028200080B582B0FFE740F23470C2F20000006869
:10283000006870B1FFE740F23470C2F20000006837
:10284000C0680068019001984FF0FF31FFF76EFEFD
:10285000E9E740F23472C2F200021068009040F2E0
:102860004471C2F20001086810600098086002B06C
:1028700080BD000082B0002000904FF0800080F307
:102880001188BFF36F8FBFF34F8F0190FFE7009860
:1028900008B9FFE7FBE702B07047000084B003907F
:1028A00000200290039801900198406943F284014E
:1028B000C2F2000188422BD1FFE70198806A43F2FF
:1028C0006401C2F20001884220D0FFE70198806ACB
:1028D000D0B9FFE70120029000200090FFE70098A8
:1028E000002810DCFFE701980099084490F8580090
:1028F000012803D1FFE70020029004E0FFE70098E1
:1029000001300090EBE700E0FFE700E0FFE700E0C8
:10291000FFE7029804B0704780B584B00390FFE7EA
:1029200001A8FFF7B7FB029002980199FFF7D0FECC
:10293000FFF726FEF4E7000080B582B0019001F0B9
:10294000FFFA019890F845008DF80300FFE79DF924
:102950000300012816DBFFE70198406A58B1FFE742
:102960000198243002F018FE18B1FFE701F0DCFBFB
:1029700000E0FFE700E005E09DF8030001388DF876
:102980000300E4E70199FF2081F8450001F0F0FA27
:1029900001F0D6FA019890F844008DF80200FFE7A4
:1029A0009DF90200012816DBFFE70198006980B15C
:1029B000FFE70198103002F0EFFD18B1FFE701F0DA
:1029C000B3FB00E0FFE79DF8020001388DF802003C
:1029D00000E000E0E4E70199FF2081F8440001F005
:1029E000C7FA02B080BD000080B588B00790002013
:1029F0000390079840B3FFE7079810F1090F1FD81D
:102A0000FFE70798083007909DF81C004007A8B121
:102A1000FFE7079800F00700C0F108000290079850
:102A20000299C943884205D8FFE7029907980844EC
:102A3000079002E000200790FFE700E0FFE702E0D8
:102A400000200790FFE700E0FFE701F0A9FD40F25A
:102A50003C70C2F20000006818B9FFE7FFF73AFBCC
:102A600000E0FFE79DF81F000006002800F19180BC
:102A7000FFE70798002800F08A80FFE7079843F2F5
:102A80001C01C2F200010968884200F28080FFE761
:102A900043F27C00C2F20000059000680690FFE758
:102AA00006984168079A00209142019007D2FFE7FB
:102AB00006980068002818BF01200190FFE70198E0
:102AC000C00730B1FFE706980590069800680690A9
:102AD000E6E7069840F23C71C2F2000109688842BC
:102AE00053D0FFE705980068083003900698006807
:102AF00005990860069840680799401A112815D36F
:102B0000FFE70698079908440490069840680799DB
:102B1000401A04994860079806994860059800682B
:102B20000499086004980599086000E0FFE706989A
:102B3000426843F21C00C2F200000168891A016079
:102B4000006843F23401C2F20001096888420BD2E6
:102B5000FFE743F21C00C2F20000006843F23401B8
:102B6000C2F20001086000E0FFE70699486840F003
:102B70000040486006990020086043F24001C2F21C
:102B8000000108680130086000E0FFE700E0FFE7AF
:102B900000E0FFE702F0CAFD039808B080BD000026
:102BA00081B040F23070C2F20000006800900098DE
:102BB00028B1FFE70099086D01300865FFE700982C
:102BC00001B0704783B002900191009202980438DE
:102BD000029002994FF080700860029804380290C9
:102BE000019820F0010002990860029804380290D0
:102BF000029942F67500C0F200000860029814388D
:102C00000290009802990860029804380290029994
:102C10006FF002000860029820380290029803B01A
:102C20007047000080B586B00590049103920020A3
:102C3000009001F0B5FC01F083F940F23070C2F26F
:102C400000000068059900EB8100406D90B9FFE736
:102C500040F23070C2F20000006805990144012082
:102C600081F85800039818B1FFE70120009000E0B8
:102C7000FFE700E0FFE701F07BF90098012805D1AC
:102C8000FFE703980121FEF71BFF00E0FFE702F0DA
:102C90004DFD0190009801280FD1FFE7019860B920
:102CA000FFE74EF60451CEF200014FF0805008606D
:102CB000BFF34F8FBFF36F8F00E0FFE701F040F9E4
:102CC00040F23070C2F200000068059900EB81000C
:102CD000406D02900298D8B1FFE7049858B1FFE721
:102CE00040F23070C2F200000068059900EB8101EB
:102CF000002048650BE00298013840F23071C2F2C2
:102D000000010968059A01EB82014865FFE700E0D0
:102D1000FFE740F23070C2F20000006805990144FC
:102D2000002081F8580001F023F9029806B080BD18
:102D300082B0019001980069009001984168806814
:102D400088600199486889684860009840680199DE
:102D5000884205D1FFE7019880680099486000E04B
:102D6000FFE70199002008610099086801380860B0
:102D70000098006802B0704742F6AC30C2F2000022
:102D80000068704783B0029001910092029942F668
:102D9000C050C2F200000860019942F6C030C2F291
:102DA0000000086000998020086003B070470000B0
:102DB00083B0029001910092029942F65C70C2F2D7
:102DC00000000860019942F61C60C2F20000086031
:102DD00000995020086003B07047000080B582B0B1
:102DE00000200190FFE7019849F27F61C0F298014D
:102DF000884205DCFFE7FFE7019801300190F2E728
:102E0000FEF7AAF9002100910846FEF799FA46F666
:102E10008800C0F20000FEF751FA00990120FEF789
:102E20008FFA46F2EB70C0F20000FEF747FA46F266
:102E30000000C4F20000802102F019FE01460029C2
:102E400018BF012140F28460C2F2000001700078D6
:102E5000C00778B1FFE743F25000C2F200000068FB
:102E600001F00AFB43F25800C2F20000006801F0D2
:102E700003FBFFE702F05EFE02B080BD80B586B0C6
:102E8000059043F20C00C2F200000068002101F03E
:102E9000D7FEFFE743F20C00C2F2000000684FF0DB
:102EA000FF3101F0CDFE4FF4487001F005F94FF00D
:102EB0004020102102F0DBFD0146002918BF01214E
:102EC00040F27060C2F2000001700078C007002874
:102ED00000F0A080FFE740F21000C2F2000000689E
:102EE000002800F09780FFE7FEF736F900210491F3
:102EF0000846FEF725FA46F60110C0F20000FEF77C
:102F0000DDF904990120FEF71BFA46F69F10C0F286
:102F10000000FEF7D3F9FFE740F27060C2F2000054
:102F200001780020C907039051B1FFE740F210007B
:102F3000C2F200000068002818BF01200390FFE7DC
:102F40000398C007A0B3FFE745F2FC31C4F20201C9
:102F5000086840F00200086044F2FC31C4F200014D
:102F6000086840F040000860086820F080000860B1
:102F700040F28661C2F200010120087040F21001A7
:102F8000C2F20001022008604FF04020102102F040
:102F90006EFD002818BF012040F27061C2F20001EE
:102FA000087040F28061C2F2000103200860B3E7BC
:102FB00045F2FC31C4F20201086820F0020008600A
:102FC00044F2FC31C4F20001086820F040000860BF
:102FD000086820F08000086040F28061C2F20001C1
:102FE000002002900860FEF7B7F802990846FEF745
:102FF000A7F946F69600C0F20000FEF75FF90299C5
:103000000120FEF79DF946F6B600C0F20000FEF77B
:1030100055F950E040F27060C2F200000078C0073D
:10302000002847D1FFE740F21000C2F2000000681C
:1030300000283FD0FFE7FEF78FF8002100910846F7
:10304000FEF77EF946F69310C0F20000FEF736F95F
:10305000009901200190FEF773F946F69F10C0F227
:103060000000FEF72BF9019845F2FC32C4F202028F
:10307000116841F00201116044F2FC32C4F2000216
:10308000116841F040011160116821F08001116068
:1030900040F28661C2F20001087040F21001C2F2F3
:1030A00000010220086040F28061C2F200010320AA
:1030B0000860FFE7FFE7EDE680B586B0059043F2D4
:1030C0001400C2F200000068002101F0B9FDFFE722
:1030D00043F21400C2F2000000684FF0FF3101F02B
:1030E000AFFD4FF4487000F0E7FF4FF04020202183
:1030F00002F0BDFC0146002918BF012140F27160B9
:10310000C2F2000001700078C007002800F0A08023
:10311000FFE740F21000C2F200000068012800F052
:103120009780FFE7FEF718F8002104910846FEF7A4
:1031300007F946F60110C0F20000FEF7BFF8049947
:103140000120FEF7FDF846F67110C0F20000FEF710
:10315000B5F8FFE740F27160C2F20000017800208C
:10316000C907039051B1FFE740F21000C2F200001E
:103170000068013818BF01200390FFE70398C007DB
:10318000A0B3FFE745F2FC31C4F20201086840F049
:103190000200086044F2FC31C4F20001086820F02B
:1031A00040000860086840F08000086040F28661D6
:1031B000C2F200010020087040F21001C2F20001CA
:1031C0000220086040F28061C2F200010420086021
:1031D0004FF04020202102F04AFC002818BF0120B7
:1031E00040F27161C2F200010870B3E745F2FC31B0
:1031F000C4F20201086820F00200086044F2FC31C9
:10320000C4F20001086820F040000860086820F05F
:103210008000086040F28061C2F20001002002904C
:103220000860FDF799FF02990846FEF789F846F60F
:103230009600C0F20000FEF741F802990120FEF767
:103240007FF846F6A500C0F20000FEF737F84FE021
:1032500040F27160C2F200000078C007002846D139
:10326000FFE740F21000C2F20000006801283ED0E3
:10327000FFE7FDF771FF002101910846FEF760F8B6
:1032800046F69310C0F20000FEF718F801990120ED
:10329000FEF756F846F67110C0F20000FEF70EF881
:1032A000019845F2FC32C4F20202116841F00201B9
:1032B000116044F2FC32C4F20002116821F04001B6
:1032C0001160116841F08001116040F28661C2F224
:1032D0000001087040F21001C2F2000102200860F3
:1032E00040F28061C2F2000104200860FFE7FFE7BE
:1032F000EEE6000080B592B01190FDF72DFF0021A1
:1033000007910846FEF71CF846F62000C0F20000C0
:10331000FDF7D4FF07990120FEF712F840F20400F0
:10332000C2F20000036840F27460C2F2000000685C
:103330006946086046F67602C0F200020DA80890C1
:10334000102102F021FC0898FDF7B8FFFFE70020EC
:1033500001214FF0FF32FFF765FC40F20400C2F29A
:1033600000000068B0F1FF3F07DCFFE740F2040116
:10337000C2F2000100200860FFE740F20400C2F240
:10338000000000680B2807DBFFE740F20401C2F2EF
:1033900000010A200860FFE701200021FDF7D0FFAF
:1033A00040F20400C2F200000690036840F274602C
:1033B000C2F2000000686946086046F67602C0F274
:1033C000000209A80590102102F0DEFB0598FDF728
:1033D00075FF06980068022807DCFFE740F210013D
:1033E000C2F200010120086016E040F20400C2F2BF
:1033F00000000068082807DBFFE740F21001C2F276
:1034000000010020086006E040F21001C2F2000155
:1034100002200860FFE7FFE740F20400C2F200006C
:103420000068002841D1FFE745F2FC31C4F20201F7
:10343000086820F00200086044F2FC31C4F2000188
:10344000086820F040000860086820F080000860EC
:1034500040F21001C2F2000101200390086043F223
:103460001000C2F20000006801F006F843F25800B4
:10347000C2F20000006800F0FFFFFDF76DFE0021C2
:1034800004910846FDF75CFF46F66110C0F20000AB
:10349000FDF714FF03980499FDF752FF46F6580014
:1034A000C0F20000FDF70AFF0EE043F21000C2F286
:1034B0000000006800F022FF43F25800C2F2000052
:1034C000006800F01BFFFFE740F20400C2F20000BA
:1034D00000680A2840D1FFE745F2FC31C4F202013E
:1034E000086820F00200086044F2FC31C4F20001D8
:1034F000086820F040000860086820F0800008603C
:1035000040F21001C2F2000100200290086043F274
:103510000800C2F20000006800F0AEFF43F2500065
:10352000C2F20000006800F0A7FFFDF715FE029947
:103530000846FDF705FF46F66110C0F20000FDF7F2
:10354000BDFE02990120FDF7FBFE46F64900C0F2E0
:103550000000FDF7B3FE0EE043F20800C2F20000E7
:10356000006800F0CBFE43F25000C2F20000006899
:1035700000F0C4FEFFE7EAE681B00090009901F197
:103580000800486000994FF0FF308860009901F111
:103590000800C860009901F1080008610099002046
:1035A000086001B07047000081B0009000990020D1
:1035B000086101B07047000084B003900291029846
:1035C000006800900098013020B9FFE70398006977
:1035D000019010E0039808300190FFE701984068DF
:1035E00000680099884205D8FFE7FFE70198406826
:1035F0000190F3E7FFE7019840680299486002985C
:103600004168886001980299886002980199486031
:10361000039802990861039908680130086004B0B2
:103620007047000083B002900191029840680090BA
:103630000098019948600098806801998860019815
:1036400000998968486001980099886002980199FA
:103650000861029908680130086003B070470000F3
:1036600080B584B0039043F22800C2F200000068E5
:10367000002101F0E5FAFFE747F2FC31C4F2000156
:10368000086840F00100086000200290FFE70298FF
:1036900044F23F21C0F20F01884205DCFFE7FFE75B
:1036A000029801300290F2E747F2FC31C4F20001C7
:1036B000086820F00100086043F22800C2F2000010
:1036C00000684FF0FF3101F0BBFA4FF4FA7000F0E0
:1036D000F3FC46F20000C4F20000802102F0C7F9BA
:1036E0000146002918BF012140F28460C2F20000A7
:1036F00001700078C00778B3FFE743F25000C2F2D0
:103700000000006800F0B8FE43F25800C2F200006A
:10371000006800F0B1FEFDF71FFD00210191084691
:10372000FDF70EFE46F60F10C0F20000FDF7C6FDD5
:1037300001990120FDF704FE46F62900C0F20000C1
:10374000FDF7BCFD43F22800C2F2000000684FF014
:10375000FF3101F075FA2EE043F25000C2F2000092
:10376000006800F0CBFD43F25800C2F20000006890
:1037700000F0C4FDFDF7F0FC002100910846FDF7C4
:10378000DFFD46F60F10C0F20000FDF797FD00992F
:103790000120FDF7D5FD46F63800C0F20000FDF728
:1037A0008DFD43F22800C2F2000000684FF0FF31A7
:1037B00001F046FAFFE75FE780B584B0039043F27B
:1037C0003000C2F200000068002101F039FAFFE782
:1037D00047F2FC31C4F20001086840F001000860C3
:1037E00000200290FFE7029844F23F21C0F20F014F
:1037F000884205DCFFE7FFE7029801300290F2E71C
:1038000047F2FC31C4F20001086820F001000860B2
:1038100043F23000C2F2000000684FF0FF3101F0C7
:103820000FFA46F20000C4F20000402102F01FF936
:103830000146002918BF012140F28560C2F2000054
:1038400001700078C00700284AD1FFE740F2866087
:10385000C2F200000078C007002841D1FFE745F21E
:10386000FC31C4F20201086820F00200086044F252
:10387000FC31C4F20001086820F0400008600868CC
:1038800020F08000086040F21001C2F20001012027
:103890000090086043F21000C2F20000006800F0DF
:1038A000EBFD43F25800C2F20000006800F0E4FDB6
:1038B000FDF752FC002101910846FDF741FD46F657
:1038C0006110C0F20000FDF7F9FC00980199FDF7C6
:1038D00037FD46F65800C0F20000FDF7EFFC0EE0A1
:1038E00043F21000C2F20000006800F007FD43F24E
:1038F0005800C2F20000006800F000FDFFE767E733
:1039000080B588B0079043F24C00C2F20000006816
:10391000002101F095F9FFE747F2FC31C4F2000104
:10392000086840F00100086000200690FFE7069854
:1039300044F23F21C0F20F01884205DCFFE7FFE7B8
:10394000069801300690F2E747F2FC31C4F200011C
:10395000086820F00100086043F24C00C2F2000049
:1039600000684FF0FF3101F06BF9C82000F0A4FBB4
:1039700046F20000C4F20000102102F078F801467F
:10398000002918BF012140F27860C2F200000170E6
:103990000078C007002840F08180FFE740F2866091
:1039A000C2F200000078C007002877D0FFE7FDF7DB
:1039B000D3FB002105910846FDF7C2FC46F2D87002
:1039C000C0F20000FDF77AFC059901200490FDF794
:1039D000B7FC46F60C00C0F20000FDF76FFC45F2A4
:1039E000FC31C4F202010291086820F00200086074
:1039F00044F2FC31C4F200010391086820F0400059
:103A00000860086820F0800008604FF47A70019028
:103A100000F052FB0198029B039A196841F00201E1
:103A20001960116821F040011160116841F08001B6
:103A3000116000F041FB029A0399106820F0020027
:103A40001060086820F040000860086820F08000DE
:103A5000086043F20800C2F20000006800F00CFDAC
:103A600043F25000C2F20000006800F005FDFDF7CF
:103A700073FB05990846FDF763FC46F66500C0F246
:103A80000000FDF71BFC04980599FDF759FC46F66C
:103A90009600C0F20000FDF711FC0EE043F20800B2
:103AA000C2F20000006800F029FC43F25000C2F2AC
:103AB0000000006800F022FCFFE72DE780B586B02B
:103AC000059043F25400C2F200000068002101F0AA
:103AD000B7F8FFE743F25400C2F2000000684FF06D
:103AE000FF3101F0ADF84FF4487000F0E5FA4FF007
:103AF0004020042101F0BBFF0146002918BF01212D
:103B000040F28760C2F2000001700078C007002810
:103B100000F09F80FFE740F21000C2F20000006852
:103B2000002800F09680FFE7FDF716FB00210491C6
:103B30000846FDF705FC46F6F000C0F20000FDF770
:103B4000BDFB04990120FDF7FBFB46F69F10C0F278
:103B50000000FDF7B3FBFFE740F28760C2F2000010
:103B600001780020C907039051B1FFE740F210002F
:103B7000C2F200000068002818BF01200390FFE790
:103B80000398C00798B3FFE745F2FC31C4F2020185
:103B9000086840F00200086044F2FC31C4F2000101
:103BA000086840F040000860086820F08000086065
:103BB00040F28061C2F200010120086040F286619B
:103BC000C2F20001087040F21001C2F200010220AE
:103BD00008604FF04020042101F049FF002818BF81
:103BE000012040F28761C2F200010870B4E745F29B
:103BF000FC31C4F20201086820F00200086044F2BF
:103C0000FC31C4F20001086820F040000860086838
:103C100020F08000086040F28061C2F200010020C4
:103C200002900860FDF798FA02990846FDF788FBB4
:103C300046F69600C0F20000FDF740FB0299012015
:103C4000FDF77EFB46F6B600C0F20000FDF736FB3E
:103C50004FE040F28760C2F200000078C007002801
:103C600046D1FFE740F21000C2F2000000680028D1
:103C70003ED0FFE7FDF770FA002100910846FDF7FE
:103C80005FFB46F68410C0F20000FDF717FB0099B9
:103C900001200190FDF754FB46F69F10C0F2000092
:103CA000FDF70CFB019845F2FC32C4F202021168E8
:103CB00041F00201116044F2FC32C4F200021168CA
:103CC00041F040011160116821F08001116040F263
:103CD0008661C2F20001087040F28061C2F2000108
:103CE000086040F21001C2F2000102200860FFE704
:103CF000FFE7EFE680B586B0059043F25C00C2F2C4
:103D000000000068002100F09BFFFFE743F25C0029
:103D1000C2F2000000684FF0FF3100F091FF4FF455
:103D2000487000F0C9F94FF04020082101F09FFED3
:103D30000146002918BF012140F28860C2F200004C
:103D400001700078C007002800F09F80FFE740F274
:103D50001000C2F200000068012800F09680FFE722
:103D6000FDF7FAF9002104910846FDF7E9FA46F655
:103D7000F000C0F20000FDF7A1FA04990120FDF760
:103D8000DFFA46F67110C0F20000FDF797FAFFE780
:103D900040F28860C2F2000001780020C907039059
:103DA00051B1FFE740F21000C2F200000068013894
:103DB00018BF01200390FFE70398C00798B3FFE7FF
:103DC00045F2FC31C4F20201086840F002000860CC
:103DD00044F2FC31C4F20001086820F040000860A1
:103DE000086840F08000086040F28661C2F200017D
:103DF0000020087040F28061C2F2000102200860D9
:103E000040F21001C2F2000108604FF0402008218A
:103E100001F02DFE002818BF012040F28861C2F297
:103E200000010870B4E745F2FC31C4F202010868F1
:103E300020F00200086044F2FC31C4F2000108687E
:103E400020F040000860086820F08000086040F220
:103E50008061C2F20001002002900860FDF77CF949
:103E600002990846FDF76CFA46F69600C0F200008B
:103E7000FDF724FA02990120FDF762FA46F6A50043
:103E8000C0F20000FDF71AFA4EE040F28860C2F27C
:103E900000000078C007002845D1FFE740F210007D
:103EA000C2F20000006801283DD0FFE7FDF754F999
:103EB000002101910846FDF743FA46F68410C0F24E
:103EC0000000FDF7FBF901990120FDF739FA46F6EC
:103ED0007110C0F20000FDF7F1F9019845F2FC32D3
:103EE000C4F20202116841F00201116044F2FC3296
:103EF000C4F20002116821F040011160116841F024
:103F00008001116040F28661C2F20001087040F247
:103F10008061C2F200010220086040F21001C2F28A
:103F200000010860FFE7FFE7F0E60000DFF80C00A3
:103F3000016841F4700101607047000088ED00E005
:103F400081B04FF0800080F31188BFF36F8FBFF313
:103F50004F8F009040F20C00C2F200000168013166
:103F600001600068012801D1FFE7FFE701B0704759
:103F700081B040F20C00C2F200000168013901601A
:103F8000006830B9FFE700200090009880F31188A6
:103F9000FFE701B07047000080B584B0039003983C
:103FA0000290039888B3FFE70298083802900298BD
:103FB00001900198C1790020B0EBD11F23D0FFE719
:103FC00001980068E8B9FFE70199486820F00040CF
:103FD000486000F0E5FA0198426843F21C01C2F221
:103FE00000010868104408600198FEF7C7F943F221
:103FF0004401C2F2000108680130086001F096FB3C
:1040000000E0FFE700E0FFE7FFE704B080BD00004D
:104010004EF21001CEF20001002008604EF21802AC
:10402000CEF20002106040F20000C2F20000006810
:1040300044F6D352C1F26202A0FB02024FF0FF30FD
:1040400000EB92104EF21402CEF200021060072034
:104050000860704780B584B0039002910192039884
:104060000090FFF76DFF009890F94400013028B9E7
:10407000FFE70099002081F84400FFE7009890F9DD
:104080004500013028B9FFE70099002081F845007C
:10409000FFE7FFF76DFF0098806B38B9FFE70098E6
:1040A00024300299019A00F05BF800E0FFE70098E5
:1040B000FEF742FC04B080BD80B582B001900020C4
:1040C0000090019850B1FFE700F06AFA01980021D2
:1040D000FDF7F6FC01F02AFB009000E0FFE70098F6
:1040E00060B9FFE74EF60451CEF200014FF0805068
:1040F0000860BFF34F8FBFF36F8F00E0FFE702B0A0
:1041000080BD000081B0009043F23C00C2F200008C
:1041100000680099086043F2AC00C2F20000006839
:104120000099486001B0704743F2C001C2F200013B
:10413000012008607047000080B582B001900091B6
:10414000019840F23071C2F2000109681831FFF79E
:1041500033FA00980121FDF7B3FC02B080BD0000E6
:1041600080B584B0039002910192FFE70398406804
:104170000090009840F23071C2F200010A68D061EC
:10418000009880680A68106208681830009A92687F
:10419000506008681830009A906003980968886237
:1041A0000399086801300860FFE7019820B1FFE734
:1041B0004FF0FF300290FFE702980199FDF780FC75
:1041C00004B080BD80B588B007900691079805902F
:1041D000012002900798002800F08D80FFE70598E5
:1041E000C06C0699884203D2FFE70698039003E06B
:1041F0000598C06C0390FFE70598C06A0399884250
:1042000077D0FFE70598006D012870D1FFE705988A
:10421000C06A049003980599C8620598C07E00069C
:10422000002806D4FFE70398C0F13800059988619B
:1042300000E0FFE705984069049901EB810240F234
:104240004871C2F2000101EB820188424DD1FFE7C3
:1042500005980430FEF76CFD08B9FFE700E0FFE7C2
:10426000FFE7FFE70598C06A42F6BC31C2F20001E1
:104270000968884208D9FFE70598C06A42F6BC3150
:10428000C2F200010860FFE7FFE7FFE70598C06A98
:1042900000EB800040F24871C2F2000101EB8000A7
:1042A000406801900198059A906001988068059A8D
:1042B000D06005980430019A9268506005980430E7
:1042C000019A9060059AD06A00EB800001EB8000B3
:1042D00050610598C06A00EB800251F8220001305D
:1042E00041F82200FFE7FFE700E0FFE700E0FFE71B
:1042F00000E0FFE700E0FFE708B080BD80B584B0D4
:10430000039003980290029840F23071C2F20001CB
:104310000968884273D0FFE7029800286FD0FFE752
:10432000FFF70EFE0298FEF7B9FA002863D0FFE708
:1043300002980430FEF7FCFCFFE7FFE70298C06A32
:1043400042F6BC31C2F200010968884208D9FFE791
:104350000298C06A42F6BC31C2F200010860FFE771
:10436000FFE7FFE70298C06A00EB800040F2487167
:10437000C2F2000101EB8000406801900198029AAE
:10438000906001988068029AD06002980430019A87
:104390009268506002980430019A9060029AD06A44
:1043A00000EB800001EB800050610298C06A00EBD6
:1043B000800251F82200013041F82200FFE7FFE7B8
:1043C000FFE740F23070C2F200000068C06A029954
:1043D000C96A88420CD2FFE74EF60451CEF20001C2
:1043E0004FF080500860BFF34F8FBFF36F8F00E036
:1043F000FFE7FFE700E0FFE7FFF7BAFD00E0FFE7B8
:1044000004B080BD80B582B0FDF72AFD0090009811
:10441000012804D1FFE701F0A9FA009000E0FFE7CE
:10442000009801281FD1FFE74FF0800080F311882A
:10443000BFF36F8FBFF34F8F019043F23801C2F289
:1044400000014FF0FF30086043F27801C2F2000132
:104450000120086043F2AC01C2F2000100200860B4
:1044600000F0A8F900E0FFE746F61C20C0F20000CB
:10447000006802B080BD000080B586B00590FFF7EF
:104480005FFD059838B9FFE740F23070C2F20000D6
:104490000068019002E005980190FFE70198049000
:1044A00004980430FEF744FC08B9FFE700E0FFE79A
:1044B0000498806A28B1FFE704981830FEF738FCAA
:1044C00000E0FFE70498011D43F28400C2F20000FF
:1044D000FFF7A8F800200390FFE70398002814DCFA
:1044E000FFE704980399084490F85800012807D181
:1044F000FFE7049803990144002081F85800FFE782
:10450000FFE7039801300390E7E7FFF731FD43F23F
:104510007800C2F20000006838B1FFE7FFF710FD35
:10452000FEF73EF9FFF724FD00E0FFE7049840F2B4
:104530003071C2F20001096888422ED1FFE743F2D0
:104540007800C2F20000006860B1FFE74EF6045147
:10455000CEF200014FF080500860BFF34F8FBFF3E1
:104560006F8F19E043F28400C2F2000000680290ED
:10457000029842F6AC31C2F200010968884207D1C4
:10458000FFE740F23071C2F200010020086002E053
:1045900000F00EF8FFE7FFE700E0FFE706B080BDA0
:1045A00042F6B431C2F20001086801300860704779
:1045B00082B042F6B430C2F20000006838B1FFE7C2
:1045C00043F2C001C2F20001012008604BE043F257
:1045D000C001C2F2000100200860FFE742F6BC30D3
:1045E000C2F2000000680190FFE7019800EB800133
:1045F00040F24870C2F2000050F8210020B9FFE7F5
:10460000019801380190F0E7FFE7019800EB800185
:1046100040F24870C2F2000000EB81000090009967
:10462000486840684860009948680831884204D169
:10463000FFE70099C8684860FFE700984068C068D5
:1046400040F23071C2F200010860FFE7019842F6C3
:10465000BC31C2F200010860FFE740F23070C2F2E4
:1046600000000068FFE702B07047000080B584B02A
:10467000039043F2BC00C2F200000068002100F089
:10468000DFFAFFE747F2FC31C4F20001086840F0AE
:104690000100086000200290FFE7029844F23F21E9
:1046A000C0F20F01884205DCFFE7FFE70298013006
:1046B0000290F2E747F2FC31C4F20001086820F0F2
:1046C0000100086043F2BC00C2F2000000684FF035
:1046D000FF3100F0B5FA46F20000C4F200002021DC
:1046E00001F0C5F90146002918BF012142F6A830A2
:1046F000C2F2000001700078C007002849D1FFE72E
:1047000040F28660C2F200000078C007002840D066
:10471000FFE745F2FC31C4F20201086820F0020014
:10472000086044F2FC31C4F20001086820F0400047
:104730000860086820F08000086040F21001C2F2B2
:10474000000100200190086043F20800C2F200005E
:104750000068FFF791FE43F25000C2F200000068CB
:10476000FFF78AFEFCF7F8FC01990846FCF7E8FD24
:1047700046F66110C0F20000FCF7A0FD019901208F
:10478000FCF7DEFD46F64900C0F20000FCF796FD9E
:104790000EE043F20800C2F200000068FFF7AEFD31
:1047A00043F25000C2F200000068FFF7A7FDFFE7E8
:1047B00068E7000080B582B04EF60850CEF20000E7
:1047C000006801904EF62051CEF20001086840F4D6
:1047D0007F000860086840F07F4008604EF61C517A
:1047E000CEF20001002000900860FFF711FC009855
:1047F00040F20C01C2F200010860FFF797FB4EF691
:104800003471CEF20001086840F040400860FDF7C6
:1048100079FEFFF7CDFEFEF72DF8009802B080BDBF
:1048200080B582B04FF0800080F31188BFF36F8FA6
:10483000BFF34F8F009000F0D1FC40B1FFE74EF680
:104840000451CEF200014FF08050086000E0FFE715
:1048500000200190019880F3118802B080BD000013
:1048600080B588B0079006918DF81720002004903D
:104870000798A0B3FFE707994FF0FF30B0FBF1F0C6
:10488000069988422BD3FFE707980699484310F111
:10489000510F24D8FFE707980699484303900398DF
:1048A0005030FEF7A1F804900498B0B1FFE70498E7
:1048B00002900298503002900499002081F846003E
:1048C00007980699029A9DF81730DDF810C0EE4659
:1048D000CEF800C0FDF772FC00E0FFE700E0FFE764
:1048E000049808B080BD000080B588B084460A985E
:1048F000CDF81CC00691059204938DF80F0000209E
:104900000290079810B3FFE70498F8B1FFE7059805
:1049100018B1FFE70698C8B1FFE7059818B9FFE797
:10492000069898B9FFE7049802900299012081F84F
:10493000460007980699059A9DF80F30DDF808C0E3
:10494000EE46CEF800C0FDF739FC00E0FFE7029824
:1049500008B080BD80B584B0039002910120019021
:10496000039800900098002856D0FFE70098C06B8D
:10497000002851D0FFE70098C26B016C4FF0FF3068
:10498000B0FBF2F0884247D3FFE7FFF7D9FA00996E
:104990000B68C86B0A6C00FB02308860009900202D
:1049A000886300990868486000990B68C86B0A6CB6
:1049B000013800FB0230C8600099FF2081F84400F4
:1049C000009981F845000298D0B9FFE70098006986
:1049D000A0B1FFE70098103000F0DEFD60B1FFE706
:1049E0004EF60451CEF200014FF080500860BFF344
:1049F0004F8FBFF36F8F00E0FFE700E0FFE708E0B5
:104A000000981030FEF7B8FD00982430FEF7B4FD92
:104A1000FFE7FFF7ADFA02E000200190FFE7019801
:104A200004B080BD80B58CB00890079108980490C0
:104A3000EFF311814FF0800080F31188BFF36F8F87
:104A4000BFF34F8F0A9109900A9805900498806BE4
:104A5000039003980499C96B88423BD2FFE70498FE
:104A600090F845008DF80B00039801300499886395
:104A70009DF90B000130B8B9FFE70498406A88B18E
:104A8000FFE70498243000F087FD48B1FFE707985E
:104A900020B1FFE707990120086000E0FFE700E090
:104AA000FFE700E0FFE712E0FFE7FEF765F901909E
:104AB0009DF90B000199884207D2FFE79DF80B0092
:104AC0000130049981F84500FFE7FFE7FFE7012087
:104AD000069002E000200690FFE705980B900B98E7
:104AE00080F3118806980CB080BD000080B58AB0B4
:104AF0000890079106920020059008980290FFE721
:104B0000FFF71EFA0298806B0190019830B3FFE71F
:104B100002980799FDF782F9019801380299886394
:104B200002980069A0B1FFE70298103000F034FD50
:104B300060B1FFE74EF60451CEF200014FF0805015
:104B40000860BFF34F8FBFF36F8F00E0FFE700E017
:104B5000FFE7FFF70DFA012009906DE0069828B9EC
:104B6000FFE7FFF705FA0020099065E0059830B9E6
:104B7000FFE703A8FFF7C6FA0120059000E0FFE772
:104B8000FFE7FFE7FFF7F4F9FFF70AFDFFF7D8F9B2
:104B9000029890F94400013028B9FFE702990020FB
:104BA00081F84400FFE7029890F94500013028B9E8
:104BB000FFE70299002081F84500FFE7FFF7D8F9E9
:104BC00003A806A900F00CF930BBFFE70298FDF737
:104BD00085FCD0B1FFE7029824300699FFF7ACFAC4
:104BE0000298FDF7A9FE00F0A1FD60B9FFE74EF6BF
:104BF0000451CEF200014FF080500860BFF34F8F98
:104C0000BFF36F8F00E0FFE705E00298FDF794FE29
:104C100000F08CFDFFE70EE00298FDF78DFE00F03E
:104C200085FD0298FDF75AFC18B1FFE700200990B6
:104C300002E0FFE7FFE763E709980AB080BD0000E4
:104C400080B58AB0089007910020069008990391DA
:104C50000290FFE7FFF774F90398806B01900198C9
:104C600060B3FFE7019801380399886303980068EF
:104C700028B9FFE7FDF794FF0399886000E0FFE79C
:104C800003980069A0B1FFE70398103000F084FC9E
:104C900060B1FFE74EF60451CEF200014FF08050B4
:104CA0000860BFF34F8FBFF36F8F00E0FFE700E0B6
:104CB000FFE7FFF75DF9012009908DE0079828B91B
:104CC000FFE7FFF755F90020099085E0069830B915
:104CD000FFE704A8FFF716FA0120069000E0FFE7BF
:104CE000FFE7FFE7FFF744F9FFF75AFCFFF728F962
:104CF000039890F94400013028B9FFE70399002098
:104D000081F84400FFE7039890F94500013028B985
:104D1000FFE70399002081F84500FFE7FFF728F936
:104D200004A807A900F05CF8A8BBFFE70398FDF70B
:104D3000D5FB48B3FFE70398006850B9FFE7FFF7DA
:104D4000FFF80398806800F079FB0290FFF710F9F4
:104D500000E0FFE7039824300799FFF7EDF9039887
:104D6000FDF7EAFD00F0E2FC60B9FFE74EF6045102
:104D7000CEF200014FF080500860BFF34F8FBFF3B9
:104D80006F8F00E0FFE705E00398FDF7D5FD00F029
:104D9000CDFCFFE71FE00398FDF7CEFD00F0C6FC59
:104DA0000398FDF79BFBA0B1FFE7029870B1FFE706
:104DB000FFF7C6F80398FDF759F90090039880684B
:104DC0000099FFF7FFF9FFF7D3F8FFE700200990FC
:104DD00002E0FFE7FFE73DE709980AB080BD000069
:104DE00080B586B005900491FFF7AAF843F2AC00B5
:104DF000C2F2000000680290029805994968401AC2
:104E0000019040F23070C2F20000006890F85A0041
:104E100058B1FFE740F23070C2F200000168002094
:104E200081F85A000120039037E0049800680130AF
:104E300018B9FFE7002003902EE043F23C00C2F2D5
:104E4000000000680599096888420CD0FFE70298C5
:104E500005994968884206D3FFE701200390049929
:104E60000020086017E001980499096888420BD275
:104E7000FFE7019A04990868801A08600598FFF70F
:104E800041F90020039005E004990020086001200A
:104E90000390FFE7FFE7FFE7FFE7FFF769F80398F5
:104EA00006B080BD10B588B0DDF82CC0DDF828C094
:104EB000079006910592049307980699059A049B1A
:104EC000DDF828C00B9CEE46CEF80440CEF800C0BA
:104ED000FDF766F80390039830B1FFE70398FCF7FD
:104EE00077FE0120029003E04FF0FF300290FFE7D1
:104EF000029808B010BD000070B58AB0DDF840C05F
:104F0000DDF83CC0DDF838C009900891079206939F
:104F10000020059009980899079A069BDDF838C08B
:104F20000F9C109DEE4605AECEF80C60CEF80850F2
:104F3000CEF80440CEF800C0FCF7F6FF04900498C9
:104F400020B1FFE70498FCF743FE00E0FFE7059877
:104F50000AB070BD8FB0DDF840C0DDF83CC00B90EA
:104F60000A9109928DF82330012005900B98079043
:104F7000EFF311814FF0800080F31188BFF36F8F42
:104F8000BFF34F8F0D910C900D9804900F9840B186
:104F9000FFE707980A9900EB8100406D0F990860C0
:104FA000FFE707980A99084490F858008DF81B000D
:104FB00007980A990144022081F858009DF82300BF
:104FC0000146009104282ED80099DFE801F02B0358
:104FD0000C141B00099A07980A9900EB8101486D8F
:104FE0001043486520E007980A9900EB8101486D5D
:104FF0000130486518E0099807990A9A01EB820187
:10500000486511E09DF81B00022807D0FFE70998CA
:1050100007990A9A01EB8201486502E00020059099
:10502000FFE701E000E0FFE79DF81B00012840F0EA
:10503000A780FFE742F6B430C2F200000068002803
:1050400065D1FFE7FFE707984069039007988168FB
:10505000C068886007998868C96848600398406894
:1050600007990431884205D1FFE70798C068039982
:105070004860FFE7079900204861039908680138F4
:105080000860FFE7FFE7FFE70798C06A42F6BC3118
:10509000C2F200010968884208D9FFE70798C06A90
:1050A00042F6BC31C2F200010860FFE7FFE7FFE70C
:1050B0000798C06A00EB800040F24871C2F200011C
:1050C00001EB8000406802900298079A9060029875
:1050D0008068079AD06007980430029A92685060FE
:1050E00007980430029A9060079AD06A00EB80001B
:1050F00001EB800050610798C06A00EB800251F814
:105100002200013041F82200FFE7FFE71DE0FFE742
:1051100043F26401C2F20001486801900198079AC5
:10512000D06101988068079A106207981830019A38
:105130009268506007981830019A906007988162D1
:10514000086801300860FFE7FFE70798C06A40F28F
:105150003071C2F200010968C96A88420ED9FFE7BE
:10516000109820B1FFE7109901200860FFE743F293
:10517000C001C2F200010120086000E0FFE7FFE784
:1051800004980E900E9880F3118805980FB0704720
:1051900081B043F27800C2F20000006818B9FFE75E
:1051A000012000900DE042F6B430C2F20000006829
:1051B00018B9FFE70220009002E000200090FFE70E
:1051C000FFE7009801B0704781B043F2AC00C2F233
:1051D000000000680090009801B0704780B588B06A
:1051E0000020059042F6B430C2F2000000680028AA
:1051F00040F01881FFE743F2AC01C2F200010868F9
:1052000001300490049808600498D0B9FFE7FFE7E4
:1052100040F23872C2F200021068039040F240710E
:10522000C2F20001086810600398086043F23C0174
:10523000C2F20001086801300860FDF7B1FAFFE72B
:1052400000E0FFE7049843F23801C2F20001096868
:105250008842C0F0C680FFE7FFE740F23870C2F234
:1052600000000068006840B9FFE743F23801C2F26D
:1052700000014FF0FF300860B2E040F23870C2F237
:1052800000000068C068C0680790079840680690F2
:1052900004980699884207D2FFE7069843F238013E
:1052A000C2F2000108609BE0FFE7FFE70798406952
:1052B000029007988168C068886007998868C96803
:1052C00048600298406807990431884205D1FFE799
:1052D0000798C06802994860FFE707990020486175
:1052E0000299086801380860FFE70798806A08B3E8
:1052F000FFE7FFE70798806A01900798C169006A95
:1053000088600799C869096A4860019840680799E8
:105310001831884205D1FFE70798006A0199486073
:10532000FFE7079900208862019908680138086042
:10533000FFE700E0FFE7FFE7FFE70798C06A42F6F4
:10534000BC31C2F200010968884208D9FFE707981A
:10535000C06A42F6BC31C2F200010860FFE7FFE715
:10536000FFE70798C06A00EB800040F24871C2F284
:10537000000101EB8000406800900098079A90605F
:1053800000988068079AD06007980430009A926865
:10539000506007980430009A9060079AD06A00EB3A
:1053A000800001EB800050610798C06A00EB80022A
:1053B00051F82200013041F82200FFE7FFE707988B
:1053C000C06A40F23071C2F200010968C96A8842BD
:1053D00003D9FFE70120059000E0FFE7FFE73CE786
:1053E000FFE740F23070C2F200000068C06A00EBD4
:1053F000800140F24870C2F2000050F821000228FB
:1054000003D3FFE70120059000E0FFE743F2C0006F
:10541000C2F20000006818B1FFE70120059000E02B
:10542000FFE707E043F26001C2F2000108680130C3
:105430000860FFE7059808B080BD000080B584B023
:10544000039003980290002001900398002800F038
:105450009F80FFE70298C06A40F23071C2F20001FB
:105460000968C96A884280F08280FFE70298C07E9E
:10547000000600280BD4FFE740F23070C2F20000B3
:105480000068C06AC0F138000299886100E0FFE757
:1054900002994869C96A01EB810240F24871C2F27F
:1054A000000101EB8201884255D1FFE702980430E8
:1054B000FDF73EFC08B9FFE700E0FFE740F230707F
:1054C000C2F200000068C06A0299C862FFE7FFE705
:1054D0000298C06A42F6BC31C2F2000109688842F3
:1054E00008D9FFE70298C06A42F6BC31C2F2000157
:1054F0000860FFE7FFE7FFE70298C06A00EB800063
:1055000040F24871C2F2000101EB80004068009057
:105510000098029A906000988068029AD060029881
:105520000430009A9268506002980430009A9060AB
:10553000029AD06A00EB800001EB80005061029873
:10554000C06A00EB800251F82200013041F82200CD
:10555000FFE7FFE708E040F23070C2F200000068A9
:10556000C06A0299C862FFE7012001900FE002982B
:10557000C06C40F23071C2F200010968C96A884209
:1055800003D2FFE70120019000E0FFE7FFE700E022
:10559000FFE7019804B080BD87B006900698C06808
:1055A000C0680590FFE70598806A03900598C16977
:1055B000006A88600599C869096A4860039840686C
:1055C00005991831884205D1FFE70598006A0399CB
:1055D0004860FFE705990020886203990868013850
:1055E0000860FFE742F6B430C2F20000006800280D
:1055F00065D1FFE7FFE7059840690290059881684B
:10560000C068886005998868C968486002984068E1
:1056100005990431884205D1FFE70598C0680299D1
:105620004860FFE705990020486102990868013841
:105630000860FFE7FFE7FFE70598C06A42F6BC3164
:10564000C2F200010968884208D9FFE70598C06ADC
:1056500042F6BC31C2F200010860FFE7FFE7FFE756
:105660000598C06A00EB800040F24871C2F2000168
:1056700001EB8000406801900198059A90600198C4
:105680008068059AD06005980430019A926850604D
:1056900005980430019A9060059AD06A00EB80006A
:1056A00001EB800050610598C06A00EB800251F860
:1056B0002200013041F82200FFE7FFE71DE0FFE78D
:1056C00043F26401C2F20001486800900098059A14
:1056D000D06100988068059A106205981830009A89
:1056E0009268506005981830009A90600598816221
:1056F000086801300860FFE7FFE70598C06A40F2DC
:105700003071C2F200010968C96A884208D9FFE70E
:105710000120049043F2C001C2F20001086002E0DF
:1057200000200490FFE7049807B0704780B588B068
:105730000020009007900690FEF702FC009805906C
:1057400042F6B430C2F2000001680139016000681D
:10575000002840F00481FFE742F6AC30C2F20000BE
:105760000068002800F0FA80FFE7FFE743F26400DA
:10577000C2F200000068002800F0A280FFE743F2B8
:105780006400C2F20000C068C0680790FFE7079895
:10579000806A04900798C169006A88600799C8699F
:1057A000096A48600498406807991831884205D111
:1057B000FFE70798006A04994860FFE7079900200F
:1057C00088620499086801380860FFE7FFE70798D6
:1057D0004069039007988168C06888600799886865
:1057E000C96848600398406807990431884205D128
:1057F000FFE70798C06803994860FFE70799002012
:1058000048610399086801380860FFE7FFE7FFE790
:105810000798C06A42F6BC31C2F2000109688842AA
:1058200008D9FFE70798C06A42F6BC31C2F200010E
:105830000860FFE7FFE7FFE70798C06A00EB80001A
:1058400040F24871C2F2000101EB80004068029012
:105850000298079A906002988068079AD06007982B
:105860000430029A9268506007980430029A90605F
:10587000079AD06A00EB800001EB80005061079826
:10588000C06A00EB800251F82200013041F822008A
:10589000FFE7FFE70798C06A40F23071C2F20001EB
:1058A0000968C96A884209D9FFE7059A43F2C0012D
:1058B000C2F20001012041F8220000E0FFE755E7B5
:1058C000079818B1FFE7FCF76BFFFFE743F26000B2
:1058D000C2F20000006801900198F0B1FFE7FFE715
:1058E000FFF77CFC48B1FFE7059A43F2C001C2F222
:1058F0000001012041F8220000E0FFE70198013893
:105900000190FFE701980028EAD1FFE743F2600128
:10591000C2F200010020086000E0FFE7059943F2B1
:10592000C000C2F2000050F82100A8B1FFE701203A
:105930000690FFE740F23070C2F2000000684EF6B9
:105940000451CEF200014FF080500860BFF34F8F3A
:10595000BFF36F8FFFE700E0FFE7FFE700E0FFE73F
:10596000FEF706FB069808B080BD000080B588B041
:1059700000200790FCF7E4F943F2B000C2F2000007
:10598000006858B3FFE7002003900690059006A832
:1059900005A904AAFDF70CFA039B049A0598DDF803
:1059A00018C06946C1F808C048602820086042F65F
:1059B0001910C0F2000046F61121C0F20001FFF7F5
:1059C0009BFA014643F2B400C2F200000160006895
:1059D00018B1FFE701200790FFE700E0FFE7079815
:1059E00008B080BDC0F81C147047D0F810241143D3
:1059F000C0F81014704770B50C4600F09DF80546CD
:105A0000214600F07DF82846BDE8704000F032B82D
:105A1000002914BFD0F81804D0F814047047D0F847
:105A2000083412F0010F14BF0B438B43C0F8083445
:105A3000D0F8043412F0020F14BF0B438B43C0F8AC
:105A40000434D0F80C3412F0040F14BF194323EAC5
:105A50000101C0F80C14D0F8381512F4803F14BFBF
:105A600041F0010121F00101C0F83815704750F8EC
:105A7000210070471649042804BF086840F48030AC
:105A800018D0052804BF086840F4003012D006285A
:105A900012D00F2815D0102838BF7047103800F0EA
:105AA0001F01012202FA01F142090A4850F82200BE
:105AB0000160704708607047086840F48020086003
:105AC00070474FF0E020016941F002010161704729
:105AD00024ED00E088670000084A20F00303D25854
